:1000000045C0000060C000005EC000005CC0000091
:100010005AC0000058C0000056C0000054C0000084
:1000200052C0000050C000004EC000004CC0000094
:100030004AC0000048C0000046C0000044C00000A4
:1000400042C0000040C000003EC000003CC00000B4
:100050003AC0000038C0000036C0000034C00000C4
:1000600050C0000030C000002EC000002CC00000B6
:100070002AC0000028C0000026C0000024C00000E4
:1000800022C0000020C000001EC0000011241FBEBE
:10009000CFEFD0E4DEBFCDBF11E0A0E0B1E0EAE9F0
:1000A000F8E000E00BBF02C007900D92A231B1074B
:1000B000D9F721E0A2E1B1E001C01D92A133B2075E
:1000C000E1F7C5D0E8C39CCFEAE7F0E08081866025
:1000D0008083ACE7B0E08C9180648C9380818860F1
:1000E000808380818068808380818064808308959C
:1000F000E82FF0E0EE0FFF1FE55EFE4F808191815B
:1001000008951F920F920FB60F9211240BB60F9203
:100110002F938F939F93AF93BF93EF93FF93209170
:1001200078008091790090E0982F8827822BACE7A7
:10013000B0E0EC91E770F0E0EE0FFF1FE55EFE4FE0
:10014000918380838C91873439F480E480937C00A0
:1001500081E08093120105C0ECE7F0E080818F5FC1
:100160008083EAE7F0E0808180648083FF91EF91F3
:10017000BF91AF919F918F912F910F900BBE0F90D8
:100180000FBE0F901F90189588B1886088B985E8D8
:100190008A95F1F7000088B1877F88B9089514B86F
:1001A0008BB18B7F8BB98BB188608BB92F99FECFC8
:1001B000EBDF8FEF84B90895CF93C82FF0DFC5B977
:1001C0008BB1837F8BB9E0DF14B815B8CF91089558
:1001D000E62FF0E0E150FF4F208130E020583F4F04
:1001E00090E00197820FE8CF08958AB18C608AB9B8
:1001F00087B1886087B98FE295E70197F1F700C072
:10020000000081E0D9DF8FE99FE00197F1F700C09E
:10021000000088E3D1DF95E89A95F1F700008CE0C3
:10022000CBDF85E88A95F1F7000081E0C5DF8FE13B
:100230009EE40197F1F700C00000089581E0BCDF63
:100240008FE99FE00197F1F700C000000895CDDF2E
:1002500061E081E0BDDF2FEF89E698E12150804029
:100260009040E1F700C000002FDF73D17894E6DF03
:10027000C3D0C4E022C0C2E020C0C3E01EC0C4E0BE
:100280001CC0C5E01AC0C6E018C0C1E0D6E615C063
:10029000C1E0D6E612C0C1E0D6E60FC0C2E00DC094
:1002A000C3E00BC0C4E009C0C6E007C0C2E005C09F
:1002B000C3E003C0C4E001C0C5E0809112018823FF
:1002C00021F080E015DF109212015CD1882311F03B
:1002D00052D1D82FC33099F128F4C13059F0C2302F
:1002E00011F181C0C53009F44BC0A8F1C63009F442
:1002F00062C079C040E06FE581E09DD040E064E6F7
:1003000080E099D0D636C9F2DC3609F4B4CFD237C2
:1003100009F4B3CFD33709F4B2CFD13609F4B1CF52
:10032000D43659F6B0CF40E064E680E084D040E0B7
:1003300060E081E080D0DC3609F0A7CFBECF40E09E
:1003400064E681E078D040E060E080E074D0D237AD
:1003500009F09ECFB2CF2FEF83ED90E32150804084
:100360009040E1F700C0000041E060E080E063D031
:1003700041E060E081E05FD0D33709F08CCF9DCFC2
:1003800040E064E680E057D040E06CE381E053D089
:10039000D13609F492CFDC3609F480CFD23709F494
:1003A0007FCFD33709F47ECFD13609F486CFD43648
:1003B00009F083CF79CF40E064E681E03CD040E0B3
:1003C0006CE380E038D0D43609F477CFDC3609F41A
:1003D0006DCFD23709F46CCFD33709F46BCFD13658
:1003E00009F06BCF69CF41E060E081E024D041E0CB
:1003F00060E080E020D061CF87B1806F87B98AB19B
:1004000080638AB9E0E8F0E08081826A8083E1E875
:10041000F0E080818A61808380EA9FE0909387008A
:1004200080938600109289001092880010928B00B1
:1004300010928A000895CF92DF92EF92FF920F936D
:100440001F93CF93C42F811137C06623F9F08AB16F
:1004500080628AB970E080E090E02CD10091860043
:100460001091870020E030E048EC52E48FD06B011F
:100470007C01B80180E090E01DD1A7019601A8D1D0
:10048000EDD0709389006093880003C08AB18F7D9E
:100490008AB9C11107C088B1806488B988B18F77E3
:1004A00088B93FC0C13009F03CC088B18F7B88B9A2
:1004B00088B1806888B935C06623F9F08AB1806157
:1004C0008AB970E080E090E0F5D00091860010914C
:1004D000870020E030E048EC52E458D06B017C010A
:1004E000B80180E090E0E6D0A701960171D1B6D0C6
:1004F00070938B0060938A0003C08AB18F7E8AB9A3
:10050000C11107C088B1806188B988B18F7D88B971
:1005100008C0C13031F488B18F7E88B988B180625B
:1005200088B9CF911F910F91FF90EF90DF90CF90FE
:100530000895CF93C82F8A3011F48DE0FADF8091AF
:10054000C00085FFFCCFC093C60080E090E0CF9153
:10055000089584E091E090932E0180932D011092F4
:10056000C50083E38093C40088E18093C1008EE0DE
:100570008093C20008958091C0008823E4F78091A1
:10058000C60008958091C000807808950CD0E6C020
:10059000DED040F0D5D030F021F45F3F19F0C7C075
:1005A000511110C1CAC0EBD098F39923C9F3552358
:1005B000B1F3951B550BBB27AA2762177307840756
:1005C00038F09F5F5F4F220F331F441FAA1FA9F30C
:1005D00033D00E2E3AF0E0E830D091505040E695FE
:1005E000001CCAF729D0FE2F27D0660F771F881F5F
:1005F000BB1F261737074807AB07B0E809F0BB0B4E
:10060000802DBF01FF2793585F4F2AF09E3F510571
:1006100068F08DC0D7C05F3FECF3983EDCF3869561
:1006200077956795B795F7959F5FC9F7880F911DE7
:100630009695879597F90895E1E0660F771F881FD3
:10064000BB1F621773078407BA0720F0621B730B86
:10065000840BBA0BEE1F88F7E095089598D088F0C8
:100660009F5790F0B92F9927B751A0F0D1F0660F9E
:10067000771F881F991F1AF0BA95C9F712C0B130B9
:1006800081F09FD0B1E008959CC0672F782F882714
:10069000B85F39F0B93FCCF3869577956795B395F8
:1006A000D9F73EF490958095709561957F4F8F4F67
:1006B0009F4F0895E89409C097FB3EF4909580956C
:1006C000709561957F4F8F4F9F4F9923A9F0F92F18
:1006D00096E9BB279395F695879577956795B79596
:1006E000F111F8CFFAF4BB0F11F460FF1BC06F5F7C
:1006F0007F4F8F4F9F4F16C0882311F096E911C08E
:10070000772321F09EE8872F762F05C0662371F0AE
:1007100096E8862F70E060E02AF09A95660F771FC2
:10072000881FDAF7880F9695879597F9089597F9B6
:100730009F6780E870E060E008959FEF80EC089587
:1007400000240A94161617061806090608950024B0
:100750000A9412161306140605060895092E03942A
:10076000000C11F4882352F0BB0F40F4BF2B11F49E
:1007700060FF04C06F5F7F4F8F4F9F4F089557FDFD
:100780009058440F551F59F05F3F71F04795880FFF
:1007900097FB991F61F09F3F79F087950895121696
:1007A00013061406551FF2CF4695F1DF08C0161642
:1007B00017061806991FF1CF8695710561050894F3
:1007C0000895E894BB2766277727CB0197F908950A
:1007D0000BD0C4CFB5DF28F0BADF18F0952309F0AD
:1007E000A6CFABCF1124EECFCADFA0F3959FD1F3F4
:1007F000950F50E0551F629FF001729FBB27F00DCF
:10080000B11D639FAA27F00DB11DAA1F649F662723
:10081000B00DA11D661F829F2227B00DA11D621F72
:10082000739FB00DA11D621F839FA00D611D221F2C
:10083000749F3327A00D611D231F849F600D211D10
:10084000822F762F6A2F11249F5750408AF0E1F0B3
:1008500088234AF0EE0FFF1FBB1F661F771F881FFC
:1008600091505040A9F79E3F510570F060CFAACF3C
:100870005F3FECF3983EDCF3869577956795B795E7
:10088000F795E7959F5FC1F7FE2B880F911D969511
:0A089000879597F90895F894FFCFBB
:10089A000040145400000002000000009902000009
:0208AA0000004C
:00000001FF
